:10043C000133010120000434FEFDFBF71010EEDE49
:10044C00BE7EEDDDBD7DEBDBBB7BE7D7B777102345
:10045C00F0F1F2F3F4F5F6F7F8F9FAFBFCFDFEFF18
:10046C000838FFFFFFFFFFFFFFFF08080F1F2F3F9C
:08047C00CFBFAF9F0221FFFF7B
:1000030075400AE4FF74342FF8E6F5B0E4FEEF25FB
:10001300E025E02E2410F8E665B06003020106EF48
:1000230025E025E02EB410004003020106900037BE
:10003300F828287302006702007402008002008B14
:100043000200960200A10200AC0200B70200C20245
:1000530000CD0200D80200E30200EE0200FC020120
:1000630000020104E533B401030200F3D28002016C
:1000730006E533B402028078D281020106E533B487
:100083000302806CD282807BE533B404028061D2A8
:10009300838070E533B405028056D2848065E533EE
:1000A300B40202804BD285805AE533B40302804008
:1000B300D286804FE533B404028035D2878044E58D
:1000C30033B40102802AD2A08039E533B40202801E
:1000D3001FD2A1802EE533B403028014D2A2802361
:1000E300E533B404028009D2A38018E533B40505CF
:1000F3007590F8800ED2A4800AD2A58006D2A6807D
:1001030002D2A70EEE640460030200110FEF640431
:0501130060030200087A
:0101180022C4
:1001E000859021E521B408037590FFE5217804A2EC
:1001F000E713D8FBC454F0240F1202CE02210F02E1
:100200002F1F023D2F024B3F02914F02935F029539
:100210006F02839F0275AF0267BF0259CF000002D1
:1002200097753301E4F520C280C2A07538FF2275AE
:100230003302E4F520C281C2A17539FF2275330370
:10024000E4F520C282C2A2753AFF22753304E4F5B8
:1002500020C283C2A3753BFF22753305752004C2FB
:1002600084C2A4753CFF22753304752004C287C282
:10027000A3753DFF22753303752004C286C2A275A3
:100280003EFF22753302752004C285C2A1753FFF6F
:0802900022C2A5C2A6C2A722EA
:1003D50020A00330800385233830A104E520600385
:1003E50030810385243930A204E52060033082037F
:1003F50085253A30A304E520600330830385263B39
:1004050020A40330840385273C30A306E52064043B
:10041500600330870385283D30A206E5206404602B
:100425000330860385293E30A106E5206404600378
:07043500308503852A3F22F8
:040119008D40AB0763
:10011D00E4FAE5407032EBFF3395E0FEEF24FFFF8C
:10012D00EE34FFFEEAFD3395E0FCEF2DFFEE3CFED5
:10013D007C007D0812029874382DF8E6FFF4FD332B
:10014D0095E04D60038F9022EB64057032EBFF3329
:10015D0095E0FEEF24FFFFEE34FFFEEAFD3395E060
:10016D00FCEF2DFFEE3CFE7C007D081202987438EA
:10017D002DF8E6FFF4FD3395E04D60038F9022E5F9
:10018D004064047044AF40EF3395E0FEEF2405FF6B
:10019D00E43EFEEBFD3395E0FCC3EF9DFFEE9CFED0
:1001AD00EAFD3395E0FCEF2DFFEE3CFE7C007D0873
:1001BD0012029874382DF8E6FFF4FD3395E04D608A
:1001CD0008EB640560038F90220AEA64086003025D
:0201DD00011F00
:0101DF0022FD
:10048500E4F580F5A07590FF1200031203D5AD20A9
:0A049500AF331201191201E080EEEE
:03000000020349AF
:0C034900787FE4F6D8FD75814002039037
:10029800C2D5EC30E709B2D5E4C39DFDE49CFCEE81
:1002A80030E715B2D5E4C39FFFE49EFE1202F4C303
:1002B800E49DFDE49CFC80031202F430D507C3E4FE
:0602C8009FFFE49EFE22F0
:1002CE00D083D082F8E4937012740193700DA3A3BF
:1002DE0093F8740193F5828883E4737402936860D3
:0602EE00EFA3A3A380DFD3
:10035500020485E493A3F8E493A34003F68001F235
:1003650008DFF48029E493A3F85407240CC8C333A9
:10037500C4540F4420C8834004F456800146F6DF78
:10038500E4800B010204081020408090043CE47EC8
:10039500019360BCA3FF543F30E509541FFEE4936D
:1003A500A360010ECF54C025E060A840B8E493A334
:1003B500FAE493A3F8E493A3C8C582C8CAC583CA5F
:1003C500F0A3C8C582C8CAC583CADFE9DEE780BE17
:010484000077
:1002F400BC000BBE0029EF8DF084FFADF022E4CCEE
:10030400F875F008EF2FFFEE33FEEC33FCEE9DECB6
:10031400984005FCEE9DFE0FD5F0E9E4CEFD22EDFC
:10032400F8F5F0EE8420D21CFEADF075F008EF2F46
:10033400FFED33FD4007985006D5F0F222C398FD37
:050344000FD5F0EA22D4
:00000001FF
