:10053F00060BFFF9A4B099920424408010200428E0
:10054F0020108040041A04080102041E020108044E
:10055F0001220101110001080001230002090F000F
:10056F00012CFF08120F1F2F3FCFBFAF9F102DF091
:0F057F00F1F2F3F4F5F6F7F8F9FAFBFCFDFEFFE5
:06033A00B2977F017E0076
:040340008E438F4415
:10034400E5437059E54414B40700505190035E75B9
:10035400F003A4C58325F0C58373020373020375F8
:1003640002037D02038302038B020391020399803B
:100374002C7B137C147D82802A7CE07D8A80247B04
:10038400027CDC7D22801C7C3A7DB280167B057C5D
:10039400D47D8C800E7B7F7CEB7D2080067B0A7C69
:1003A4002A7D02E544640345436023E5446405452E
:1003B40043601BEBD394004027ECD39400400CED36
:1003C400D3940040031D80F71C80EE1B80E5ECD322
:1003D4009400400CEDD3940040031D80F71C80EE84
:0103E40022F6
:0407AC002095FD2275
:0707A50020960312033A2223
:02058F008F409B
:10059100209207D29512033A80FBE540701BE4F9E3
:1005A100E4FA741E2AF8E6F5A07F037E00120340E8
:1005B1000ABA04EE09B902E822E4F9E4FA741A2A43
:1005C100F8E6F5A07F037E001203400ABA04EE09A3
:0305D100B902E884
:0105D4002204
:0205D5008F4055
:1005D700209207D29512033A80FBE540701BE4F99D
:1005E700E4FA741E2AF8E6F5A07F047E00120340A1
:1005F7000ABA04EE09B904E822E4F9E4FA741A2AFB
:10060700F8E6F5A07F047E001203400ABA04EE095B
:03061700B904E83B
:01061A0022BD
:02061B008F400E
:10061D00209207D29512033A80FBE540701BE4F956
:10062D00E4FA741E2AF8E6F5A07F057E0012034059
:10063D000ABA04EE09B906E822E4F9E4FA741A2AB2
:10064D00F8E6F5A07F057E001203400ABA04EE0914
:03065D00B906E8F3
:010660002277
:060286008F408D418B4208
:10028C00209207D29512033A80FBE5407050E4F9B6
:10029C00E4FA741E2AF8E6F5A07F057E00120340EE
:1002AC00E5086401602FE54264017029E541B4035F
:1002BC0024EAFD3395E0FCE9FF3395E0FE120025BE
:1002CC00EF640C4E700F0522740B2522F8E6F580B6
:1002DC00E4F541F5420ABA04B909B906B322E4F9C6
:1002EC00E4FA741A2AF8E6F5A07F057E00120340A2
:1002FC00E5086401602FE54264017029E541B4030F
:10030C0024EAFD3395E0FCE9FF3395E0FE1200256D
:10031C00EF640C4E700F1522740B2522F8E6F58055
:0D032C00E4F541F5420ABA04B909B906B377
:0103390022A1
:10066100E51170047F0180027F00E50860047E01CE
:1006710080027E00EE5F6005D293C29422E511B440
:1006810004047F0180027F00E50860047E0180028E
:100691007E00EE5F6005C293D29422E5087004C229
:0406A10093C294224A
:1000E800E52CC454F012006D010F00011E100133FD
:1000F80020014730015F4001715001896001A17002
:1001080001BD80000001C0E52214F508D364809485
:100118008040520201B9E52224FEF508D364809498
:100128008040030201B9C374028026E52224FDF54C
:1001380008D36480948040028077C374038012E5FA
:100148002224FCF508D36480948040028063C37441
:10015800049522F5088050C374059522F508D364E8
:10016800809480400280408048C374049522F5083A
:10017800D3648094804002802EE52224FCF5088018
:1001880030C374039522F508D364809480400280BC
:1001980016E52224FDF5088018C374029522F50897
:1001A800D3648094804004E4F51122E52224FEF50E
:0901B8000875110422E4F5082287
:1007770075400379027A0A12033ADAFBD9F7154072
:07078700E540D3940050ECA3
:01078E002248
:1001C100E4F53E753F01120661AF1112058FAF11C3
:1001D1001205D5AF1112061BE4F53DAF08EF3395BB
:1001E100E0FE7C007D06120025EF24FDFFEE34FFCA
:1001F100FEAD3DED3395E0FCC3ED9FEE6480F8EC80
:100201006480985055AB3FAD3EAF11120286053E5A
:10021100E53D75F003120003AFF0EF7039E52CC432
:1002210054F0FFE5B0C454F06F600685B02C1200A5
:10023100E8E53D6403601FAF3DEF3395E0FEEF2439
:10024100FDFFEE34FFFE7C007D06120037ED7006E7
:10025100753F01753E03053D8081AF1112061BAF4D
:10026100111205D5AF1112058F1207AC12077712C3
:1002710007B0E5117004052280021522740B2522B6
:04028100F8E6F58026
:010285002256
:10075900E4FAEA75F004120003AFF074282FF8E602
:0D076900F5A07F067E001203400ABA08E5E5
:010776002260
:10071700E523B4011DE4FAEA75F004120003AFF013
:1007270074242FF8E6F5A07F067E001203400ABA6C
:0207370008E5D3
:01073900229D
:0204DE008F3D50
:1004E000E4F53EC3E53D6480F8E53E648098504EF7
:1004F0001207A5209207D29512033A80FB2090089C
:10050000E523B4010375B04F209107E5237003750F
:10051000B05F20900DE523700912075975B04F7533
:10052000230120910EE523B4010912071775B05F6E
:0E053000E4F5237F027E00120340053E80A505
:01053E00229A
:10078F001207597523017F321204DE120717E4F5A1
:06079F00237F050204DEC9
:10047100E522B40105851209805FE522B40209E590
:100481001170058513098051E522B40309E5117046
:10049100058514098043E522B40409E51170058539
:1004A10015098035E522B40505851609802BE5225D
:1004B100B4040AE511B40405851709801CE522B4CA
:1004C100030AE511B40405851809800DE522B4027B
:0D04D1000BE511B404068519098509B02258
:10073A001207AC120471E52CC454F0FFE5B0C4549E
:0F074A00F06F60EC85B02C1200E8E50860E22249
:1006A500E52CC454F0FFE5B0C454F06F602DE5238C
:1006B500B40103120717E5B0C454F06480600385E4
:1006C500B02C1200E8E508700612078F02073A12EF
:0C06D50001C112078F1200E8120661221A
:0407B000E4F5082242
:1006E100740B2522F8E6F580C293C294D29575B0B9
:1006F1000F75A0DDC2971207AC1206A57F05120483
:10070100DEE508600C1201C112078F1200E8120623
:060711006112047180E09A
:030000000203E513
:0C03E500787FE4F6D8FD75814402042CFA
:10000300C2D530F707B2D563F0FF05F030E70CB285
:10001300D5F4048463F0FF05F080018430D502F445
:020023000422B5
:10002500EF8DF0A4A8F0CF8CF0A428CE8DF0A42EEF
:02003500FE22A9
:10003700C2D5EC30E709B2D5E4C39DFDE49CFCEEE4
:1000470030E715B2D5E4C39FFFE49EFE120093C3C9
:10005700E49DFDE49CFC800312009330D507C3E4C4
:060067009FFFE49EFE2253
:10006D00D083D082F8E4937012740193700DA3A322
:10007D0093F8740193F5828883E473740293686036
:06008D00EFA3A3A380DF36
:1003F1000206E1E493A3F8E493A34003F68001F23B
:1004010008DFF48029E493A3F85407240CC8C3330C
:10041100C4540F4420C8834004F456800146F6DFDB
:10042100E4800B010204081020408090053FE47E27
:10043100019360BCA3FF543F30E509541FFEE493D0
:10044100A360010ECF54C025E060A840B8E493A397
:10045100FAE493A3F8E493A3C8C582C8CAC583CAC2
:10046100F0A3C8C582C8CAC583CADFE9DEE780BE7A
:01058E00006C
:10009300BC000BBE0029EF8DF084FFADF022E4CC51
:1000A300F875F008EF2FFFEE33FEEC33FCEE9DEC1A
:1000B300984005FCEE9DFE0FD5F0E9E4CEFD22ED60
:1000C300F8F5F0EE8420D21CFEADF075F008EF2FAA
:1000D300FFED33FD4007985006D5F0F222C398FD9B
:0500E3000FD5F0EA2238
:00000001FF
